:020000040800F2
:10000000B018002041760008150300081703000807
:100010001B0300081F030008230300080000000062
:10002000000000000000000000000000270300089E
:1000300029030008000000002B0300082D0300081E
:100040005B7600085B7600085B7600085B7600084C
:100050005B7600085B7600085B7600085B7600083C
:100060005B7600085B7600085B7600085B7600082C
:100070005B7600085B7600085B7600085B7600081C
:100080005B7600085B7600085B7600085B7600080C
:100090005B7600085B7600085B7600085B760008FC
:1000A0005B7600085B7600085B7600085B760008EC
:1000B0005B7600085B7600085B7600085B760008DC
:1000C0005B7600085B7600085B7600085B760008CC
:1000D0005B760008EB3200085B7600085B76000870
:1000E0005B7600085B7600085B7600085B760008AC
:1000F0005B7600085B7600085B7600085B7600089C
:100100005B7600085B7600085B7600085B7600088B
:100110005B7600085B7600085B7600085B7600087B
:100120005B7600085B7600085B7600085B7600086B
:1001300000F002F800F03CF80AA090E8000C8244BD
:100140008344AAF10107DA4501D100F031F8AFF29A
:10015000090EBAE80F0013F0010F18BFFB1A43F0A5
:10016000010318473877000058770000103A24BF81
:1001700078C878C1FAD8520724BF30C830C144BF0C
:1001800004680C607047000000230024002500264E
:10019000103A28BF78C1FBD8520728BF30C148BFEA
:1001A0000B6070471FB507F021FB1FBD10B510BDD8
:1001B00007F0E6FA1146FFF7F5FF00F01FF807F029
:1001C00004FB03B4FFF7F2FF03BC03F035F80000B3
:1001D00030BF72B662B680F308887047EFF30980CB
:1001E000704780F309887047EFF30880704780F309
:1001F0000888704740BA7047C0BA704710B54FF4CE
:10020000A06005F0C7FC02F047FF4FF4E13003F0B7
:1002100020F841F2883002F076FF14A007F032FA9D
:1002200005F006FA05F014FA70B916A007F02AFADC
:100230001D4800F07DF806E04FF4FA6002F063FF1D
:100240001AA007F01FFAF7E71CA007F01BFA00F04E
:100250001FFA00F0BDF928B121A007F013FA1248E7
:1002600000F066F800F076F8002010BD476F696E68
:100270006720746F20626F6F74202E2E2E200D0A5F
:1002800000000000426F6F74696E672066726F6DC8
:10029000206F6C64206669726D77617265202E2E06
:1002A0002E200D0A0000000000000108426F6F744C
:1002B000206661696C2E2E2E0D0A0000476F696E54
:1002C0006720746F206C6F6164206E6577206669AB
:1002D000726D77617265202E2E2E200D0A000000AF
:1002E00046415420696E6974206661696C202C2037
:1002F000626F6F74696E672066726F6D206F6C64D9
:10030000206669726D77617265202E2E2E200D0A8F
:1003100000000000704700BFFEE700BFFEE700BF1F
:10032000FEE700BFFEE77047704770477047000068
:1003300010B50446206848490840B0F1005F08D174
:100340006068464908602068FFF745FF4348006839
:10035000804710BDF8B542A007F094F9012248A1EA
:100360004B4801F097FD0446002C51D149A007F0FD
:1003700089F94FF4967002F0C6FE4C4E6B46B214EB
:100380004B49434801F071FE044624B149A007F0EF
:1003900079F90120F8BD0098082801D20120F9E779
:1003A00015E043493046009A00F0A8F905460DB122
:1003B0002846EFE7009806446B464FF400723C492C
:1003C000334801F052FE04460CB10120E2E70098E8
:1003D0000028E6D12E4802F0A8F804460CB101200E
:1003E000D8E73AA13BA002F099FC10B13DA007F07C
:1003F00049F941A007F046F92C48FFF799FF06E0BC
:100400004FF4FA6002F07FFE43A007F03BF9F7E7F4
:1004100045A007F037F92548FFF78AFF0020B9E724
:100420002DE9F047044688469146B4F1006F02D9A1
:100430004FF0006001E04FF000500546661B31466A
:10044000284605F0E7FB67682068FFF7D0FEB8474D
:100450000120BDE8F08700000000FE2F18000020FA
:10046000426F6F74204669726D77617265206368B0
:1004700065636B696E67202E2E2E200D0A0000002A
:10048000303A2F6669726D776172652E62696E000F
:10049000840000204C6F6164696E67206669726D2C
:1004A00077617265202E2E2E0D0A000000000108D3
:1004B000A80200206669726D7761726520726561BD
:1004C00064206661696C200D0A0000006F6C642E68
:1004D00062696E006669726D776172652E62696E1F
:1004E000000000004261642072656E616D65202E1F
:1004F0002E2E0D0A00000000426F6F74696E672097
:1005000066726F6D206E6577206669726D776172B5
:1005100065202E2E2E0D0A00426F6F7420666169D1
:100520006C2E2E2E0D0A0000426F6F74696E6720CC
:1005300066726F6D206F6C64206669726D77617290
:10054000652E2E2E0D0A000038B50A222EA1324843
:1005500001F0A0FC04460CB1012038BD6B460D2211
:100560002EA12D4801F075FE04460CB10120F4E7E0
:10057000294801F0DAFF04460CB10120EDE7012221
:1005800021A1254801F086FC04460CB10120E4E7D6
:100590006B460D222549204801F067FD04460CB149
:1005A0000120DAE71C4801F0C0FF04460CB101202D
:1005B000D3E71E4919A007F075F820B11CA007F079
:1005C00061F80120C9E71DA007F05CF80020C4E72E
:1005D00070B51DA007F056F8002000F0DFF80546C2
:1005E00025B11FA007F04EF8012070BD2249002060
:1005F00001F035FC044624B120A007F043F80120A7
:10060000F3E70020F1E70000303A2F68656C6C6F6B
:100610002E74787400000000D806002048656C6CC9
:100620006F20576F726C640A00000000FC08002005
:10063000666174206661696C0D0A00006661742051
:10064000676F6F640D0A0000496E697469616C69B7
:100650007A696E67206469736B2E2E2E0D0A000076
:10066000496E697469616C697A65206469736B208D
:100670006661696C0D0A0000A80400204D6F756E5C
:100680007420736463617264206661696C0D0A0092
:1006900010B505F03DFC002010BD2DE9F0410446E9
:1006A0000D466005400D08D1204605F077FC064652
:1006B000042E02D00120BDE8F081C4F30A0104F544
:1006C0000060471A09E0384605F068FC0646042E2B
:1006D00001D00120EFE707F500676019B842F2D8B2
:1006E000274606E03868B0F1FF3F01D00120E2E77D
:1006F0003F1D6019B842F5D80020DCE72DE9F0472E
:1007000004460D46164631462046FFF7C6FF10B197
:100710000120BDE8F087A8464FF000090CE058F82A
:10072000291004EB890005F00AFD0746042F01D0CB
:100730000120EEE709F10109B9EB960FEFD34FF075
:10074000000909E054F8290058F82910884201D01E
:100750000120DEE709F10109B9EB960FF2D3002081
:10076000D7E710B54FF400610A4802F007FE0446CF
:10077000042C01D0012010BD4FF400620549064849
:10078000FFF7BCFF0446042C01D00120F3E7002052
:10079000F1E700000C0900200000070870B50546CD
:1007A000002442A006F06EFF05F0A7F8044634B11D
:1007B00004F05EFFFF2004F055FF04F05EFF0CB173
:1007C000012070BD0020FCE70146002070472DE9A4
:1007D000F04104460D4616461F464FF0000804B986
:1007E00017B90420BDE8F0813A463146284605F0A5
:1007F0004FF98046B8F1000F06D004F039FFFF2012
:1008000004F030FF04F039FFB8F1000F01D10020EF
:10081000E8E70120E6E72DE9F04104460D461646DB
:100820001F464FF0000804B917B90420BDE8F08155
:100830003A463146284605F063F98046B8F1000F84
:1008400001D10020F2E70120F0E72DE9F041044654
:100850000D46164614B10020BDE8F08135B1012DDA
:100860001AD0022D0FD0032D1BD111E00020164904
:10087000086004F02BFF08B9002700E001270120E1
:10088000114908600FE04FF40070308000270AE043
:1008900008203080002706E004F0F4FF30600027D5
:1008A00001E0042700BF00BF3846D5E7496E6974F0
:1008B00069616C697A696E67207364636172642030
:1008C0002E2E2E0D0A000000900121424FF00F3015
:1008D000704770B504460B4603E013F8015B04F85B
:1008E000015B1500A2F10102F7D170BD30B50346DE
:1008F00001E003F8011B1400A2F10102F9D130BD9F
:10090000F0B5044625460B46002000BF1600A2F1B4
:10091000010207D015F8017B13F801CBA7EB0C06F9
:100920003000F3D0F0BD024600E0521C107810B148
:1009300010788842F9D1107870472DE9F0410446CB
:100940000D46E66AAE422FD0207908B360780123C5
:10095000324604F13001FFF75EFF10B10120BDE81F
:10096000F08100202071A169206A0844B0420FD9AB
:10097000E7780AE0A069064460780123324604F172
:100980003001FFF748FF781EC7B2012FF2DC00BF2D
:1009900055B1607801232A4604F13001FFF717FFB3
:1009A00008B10120DBE7E5620020D8E770B5044616
:1009B00000212046FFF7C1FF0546002D58D12078C1
:1009C00003284ED1A07A00284BD00020E0624FF4DB
:1009D0000072002104F13000FFF788FF552184F8F0
:1009E0002E12AA2184F82F125221302001553120D5
:1009F00001556121322001554121332001557221D9
:100A000084F8141284F81512412184F81612612119
:100A100084F81712206984F818022069010A84F802
:100A200019122069010C84F81A122069010E84F849
:100A30001B12E06884F81C02E068010A84F81D12A9
:100A4000E068010C84F81E12E068010E84F81F12A1
:100A50006078012304F130016269FFF7DCFE0020B9
:100A6000A072607800221146FFF7EFFE00B1012569
:100A7000284670BD2DE9F04104460D46022D02D3F3
:100A8000E069A84202D80120BDE8F081D4F82080B6
:100A90002078012804D0022829D0032875D141E00C
:100AA0002F463D4607EB570708EB57212046FFF737
:100AB00044FF00B169E0C7F3080104F13000465C6F
:100AC0007F1C08EB57212046FFF737FF00B15CE0A1
:100AD000C7F3080104F13000405C46EA002615F037
:100AE000010F01D03009CFE7C6F30B00CCE708EBCC
:100AF00015212046FFF721FF00B146E0A8B240F2E1
:100B0000FF1101EA400104F13000415CA8B240F25B
:100B1000FF1202EA400204F130001044407841EA3A
:100B20000020B1E708EBD5112046FFF706FF00B122
:100B30002BE0A8B240F2FF1101EA800104F130007D
:100B40000844C0780106A8B240F2FF1202EA80020F
:100B500004F130001044807841EA0041A8B240F22C
:100B6000FF1202EA800204F130001044407841EAAA
:100B70000021A8B240F2FF1202EA800204F1300024
:100B8000805C014321F070407EE700BF4FF0FF30F2
:100B90007AE72DE9F04704460D461646022D02D3AA
:100BA000E069A84202D84FF0020AA2E0D4F82090EF
:100BB0002078012804D0022845D003287ED15FE0A8
:100BC0002F463D4607EB570709EB57212046FFF715
:100BD000B4FE8246BAF1000F00D087E0C7F30801E7
:100BE00004F1300001EB000815F0010F05D0F1B25F
:100BF00098F8000061F31F1000E0F0B288F80000E0
:100C00007F1C0120207109EB57212046FFF795FE3C
:100C10008246BAF1000F00D068E0C7F3080104F182
:100C2000300001EB000815F0010F02D0C6F30710E9
:100C300006E098F8000000F0F000C6F30321084336
:100C400088F8000052E009EB15212046FFF775FEF9
:100C50008246BAF1000F00D048E0A8B240F2FF127D
:100C600002EA400204F130008654300AA9B240F290
:100C7000FF1202EA410204F130011144487035E0EC
:100C800009EBD5112046FFF758FE8246BAF1000F56
:100C900000D02BE0A8B240F2FF1202EA800204F179
:100CA00030008654300AA9B240F2FF1202EA8102F3
:100CB00004F1300111444870310C00E013E0A8B297
:100CC00040F2FF1202EA800204F130001044817009
:100CD000310EA8B240F2FF1202EA800204F13000A5
:100CE0001044C17002E04FF0020A00BF00BF0120B3
:100CF00020715046BDE8F0872DE9F04104460D46CD
:100D0000022D02D3E069A84201D8022725E000277E
:100D10001FE029462046FFF7ADFE064606B91BE058
:100D2000012E01D1022717E0701C01D1012713E029
:100D3000002229462046FFF72CFF074607B10BE0AB
:100D40002069401C04D02069401C20610120A07251
:100D50003546E069A842DCD800BF3846BDE8F081DE
:100D60002DE9F04704460D46D4F81C904DB9D4F84F
:100D70000C80B8F1000F01D0C84511D34FF0010825
:100D80000EE029462046FFF775FE0646022E02D2E7
:100D90000120BDE8F0874E4501D23046F9E7A8466C
:100DA000474600BF7F1C4F4504D30227474501D962
:100DB0000020EEE739462046FFF75CFE064606B9FE
:100DC00009E0701C01D0012E01D13046E1E7474512
:100DD000E8D10020DDE700BF6FF0704239462046C1
:100DE000FFF7D7FE10B14FF0FF30D2E745B13A46DA
:100DF00029462046FFF7CDFE10B14FF0FF30C8E77F
:100E0000E7602069401C04D02069401E2061012059
:100E1000A0723846BDE70246891ED069801E88420E
:100E200001D8002070479378906A01FB0300F9E72E
:100E30002DE9F04106460C46F480B768012F03D037
:100E40003068C069B84202D80220BDE8F0812FB9ED
:100E500030680078032801D13068476A67B9F760C5
:100E600030680089A04201DC0220EEE73068406A69
:100E700000EB1410306120E030688078050112E04A
:100E800039463068FFF7F6FD0746781C01D101208E
:100E9000DBE7022F03D33068C069B84201D80220D3
:100EA000D3E7601B84B2AC42EADAF76039463068B7
:100EB000FFF7B1FF00EB141030613068303004F000
:100EC0000F0100EB411070610020BEE72DE9F041F9
:100ED00004460D46E088401C87B20FB1206910B966
:100EE0000420BDE8F08117F00F0F70D12069401C7D
:100EF0002061E06828B920680089B84267DC0420D6
:100F0000EFE720688078401E10EA171F5FD1E16884
:100F10002068FFF7AFFD0646012E01D80220E0E76A
:100F2000701C01D10120DCE72068C069B04248D8BC
:100F30000DB90420D5E7E1682068FFF711FF0646E8
:100F40000EB90720CDE7012E01D10220C9E7701CA0
:100F500001D10120C5E700212068FFF7EEFC08B1B0
:100F60000120BEE7216801F130004FF4007200213A
:100F7000FFF7BCFC31462068FFF74DFF2168C862CF
:100F80004FF0000812E0012021680871002120685C
:100F9000FFF7D3FC08B10120A3E72068C06A401C1A
:100FA0002168C86208F1010000F0FF08206880781D
:100FB0004045E8DC2068C06AA0EB08002168C862F0
:100FC00000BFE66031462068FFF725FF2061E7801B
:100FD0002068303007F00F0100EB41106061002005
:100FE0007FE72DE9F04104460E46307800F0BF005F
:100FF000401E00EB800101EBC0074FF0000800BF6E
:10100000FC4911F80810715CFA4A12F808203244C1
:10101000527841EA022002F0D3F90546FF2F07DAA1
:1010200039467F1C34F8110002F0CAF9A84202D0F8
:101030000020BDE8F08108F1010080460D2801DAAA
:10104000002DDDD10120F4E770B50246087800F0EC
:101050003F00401E00EB800606EBC004002500BFE9
:10106000FF2C01DB002070BDE248405D085CE14ED2
:10107000765D0E44767840EA062303B907E0204601
:10108000641C22F81030681C05460D28E8DB00BF00
:10109000087810F0400F06D0FF2C01DB0020E2E7BB
:1010A000002022F814000120DDE7F0B54B730F2774
:1010B000CF7200270F738F76BC4681F81BC0571E76
:1010C00007EB870C0CEBC70400273E463D4600BFEC
:1010D000A6F57F47FF3F03D02746641C30F8176012
:1010E000DFF810C31CF805C001F80C603712DFF8F8
:1010F00004C31CF805C08C448CF801700EB94FF67F
:10110000FF766F1C3D460D2FE2DBA6F57F47FF3FC4
:1011100002D030F814700FB942F040020A70F0BDEE
:101120002DE9FC4704460D4616461F460B2229466C
:101130002046FFF7CEFB052F0ADD00BF781000EB3D
:10114000C73136F8022B881887B230880028F5D1CD
:101150004FF0070800BF0A2097FBF0F100FB117069
:101160003030C1B24046A8F101080DF800100A2045
:1011700097FBF0F087B2002FEDD17E200DF808002C
:101180004FF0000918E014F80900812803DB14F877
:1011900009009F2807DD14F80900E0280ADB14F88D
:1011A0000900FC2806DCA8F10100484500D109E04F
:1011B00009F1010909F10109C14503DA14F809002F
:1011C0002028E0D100BF00BFB8F1080F05DA404683
:1011D00008F101081DF8000000E02020C2B24846D6
:1011E00009F101092254B9F1080FEDDBBDE8FC87D4
:1011F00030B5014600200B2200BF431003EBC014A2
:1012000011F8015B6319D8B2531E1A00F5D130BD35
:101210002DE9F05F044600212046FFF709FE054650
:1012200015B12846BDE8F09F4FF0FF0AD346A069EC
:10123000C07A00F0010900BF21692068FFF77DFB3B
:10124000054605B158E067693E780EB9042553E0BC
:10125000F87A00F03F08E52E05D018F0080F05D009
:10126000B8F10F0F02D04FF0FF0A3EE0B8F10F0FB8
:1012700020D1E069002838D016F0400F06D097F84A
:101280000DB006F0BF06B246E088208456450DD169
:10129000787B58450AD1B9F1000F04D03946E0698E
:1012A000FFF79FFE10B1AAF1010000E0FF2000F05F
:1012B000FF0A1AE0BAF1000F04D13846FFF798FF91
:1012C000584502D04FF6FF702084B9F1000F03D0CB
:1012D000BAF1000F07D10FE00B223846A169FFF7E2
:1012E0000FFB00B908E04FF0FF0A00212046FFF78E
:1012F000EDFD0546002D9FD000BF284692E72DE961
:10130000F04704464FF0FF09CA4604254CE0216926
:101310002068FFF712FB054605B148E067693E7893
:101320000EB9042543E0F87A00F03F08E52E07D017
:101330002E2E05D018F0080F05D0B8F10F0F02D0EF
:101340004FF0FF0929E0B8F10F0F1AD116F0400F46
:1013500006D097F80DA006F0BF06B146E0882084BD
:101360004E450AD1787B504507D13946E069FFF7F1
:101370006BFE10B1A9F1010000E0FF2000F0FF09B1
:101380000BE0B9F1000F04D13846FFF731FF5045AB
:1013900002D04FF6FF70208409E000212046FFF7BD
:1013A00095FD054605B102E020690028AFD100BFD8
:1013B0000DB1002020612846BDE8F0872DE9F04FEF
:1013C00085B00446A0690190D4F81CB00C2202A894
:1013D0000199FFF77EFA00BF9DF8130010F0010F8E
:1013E0002FD000210198C1720020E0614FF0010868
:1013F00012E00000FA77000843465A4602A9019815
:10140000FFF78EFE2046FFF703FF054605B106E015
:1014100008F101001FFA80F8B8F1640FECDB00BF9F
:10142000B8F1640F03D1072005B0BDE8F08F042D9B
:1014300001D02846F8E79DF813100198C172C4F84E
:101440001CB09DF8130010F0020F12D04FF00009ED
:1014500003E009F101001FFA80F93BF819000028A8
:10146000F7D109F119000D2190FBF1F01FFA80F975
:1014700001E04FF0010900212046FFF7D9FC0546A5
:101480000DB12846D0E74FF0000AD04600BF2169D1
:101490002068FFF752FA054605B119E06069067841
:1014A000E52E00D05EB9B8F1000F01D1B4F806A066
:1014B00008F1010080B28046484502D108E04FF0B3
:1014C000000801212046FFF701FD0546002DDED072
:1014D00000BF002D2FD1B9F1010F2CDD5146204660
:1014E000FFF7A6FC054635BBA069FFF781FE00901B
:1014F000A9F101001FFA80F900BF21692068FFF7F8
:101500001CFA054605B115E06169E06909F0FF02C2
:10151000009BFFF7CAFD01202168087100212046C9
:10152000FFF7D4FC05462DB9A9F1010080B25FEAAE
:101530000009E2D100BFC5B921692068FFF7FDF9B4
:10154000054695B96769202200213846FFF7CEF994
:101550000B223846A169FFF7BCF9A069C07A00F0F8
:101560001800387301202168087128465CE770B5BF
:101570000446E688208CA0F57F42FF3A01D1304630
:1015800000E0208C81B22046FFF752FC0546E5B909
:1015900000BF21692068FFF7D0F9054605B110E0CA
:1015A000E52061690870012021680871E088B04277
:1015B00000DB06E000212046FFF788FC0546002DF1
:1015C000E7D000BF042D00D10225284670BD2DE9CB
:1015D000FF5F04460D460020834602902868019074
:1015E000D4F81C9000BF58460BF1010B019911F87B
:1015F0000080B8F1200F05DBB8F12F0F02D0B8F151
:101600005C0F00D13BE00298FF2803DB062004B00A
:10161000BDE8F09F08F0FF08B8F1810F03DB08F088
:10162000FF009F2807DD08F0FF00E02817DB08F027
:10163000FF00FC2813DC58460BF1010B019A115CEA
:10164000402901DB7E2905DD802901DBFC2901DD44
:101650000620DCE701EB08201FFA80F800BFB8F194
:10166000800F06DA4146F9A0FFF75DF908B10620C0
:10167000CDE70298411C029129F81080B3E700BF22
:10168000019858442860B8F1200F01DA042000E0E6
:101690000020C7B20DE00298401E39F81080B8F162
:1016A000200F03D0B8F12E0F00D005E00298401EA5
:1016B000029002980028EED100BF029808B90620D7
:1016C000A5E70021029829F810100B222021A0691B
:1016D000FFF70CF94FF0000B01E00BF1010B39F8AB
:1016E0001B002028F9D039F81B002E28F5D0BBF1BB
:1016F000000F01D047F0030702E00298401E02905D
:10170000029828B10298401E39F810002E28F4D112
:101710000026B2460820039000BF58460BF1010B8B
:1017200039F81080B8F1000F00D173E0B8F1200F44
:1017300005D0B8F12E0F05D10298834502D047F0AD
:101740000307EAE70398824502DA0298834517D136
:1017500003980B2802D147F003075BE0029883450A
:1017600001D047F003070298834500DD52E0DDF821
:1017700008B04FF0080A0B200390B006060ECCE725
:10178000B8F1800F09DB404601F01AFE00210090FD
:1017900001F019FE804647F00207B8F1FF0F10DD97
:1017A0000398401E504504DC47F00307DDF80CA009
:1017B000B3E74FEA282250460AF1010AA3691A54F6
:1017C00021E0B8F1000F04D04146A3A0FFF7ABF829
:1017D00020B14FF05F0847F0030714E0B8F1410F64
:1017E00005DBB8F15A0F02DC46F002060BE0B8F157
:1017F000610F08DBB8F17A0F05DC46F00106A8F1AD
:1018000020001FFA80F850460AF1010AA36903F884
:10181000008082E700BFA0690078E52802D105209A
:10182000A16908700398082801D1B006060E06F0D9
:101830000C000C2803D006F00300032801D147F068
:10184000020717F0020F0BD106F00300012801D1A7
:1018500047F0100706F00C00042801D147F00807F4
:10186000A069C7720020D2E62DE9FC5F04460D4650
:1018700005F10909206900285ED0D4F8148098F891
:101880000C000190002615E018F80670202F00D1FA
:1018900012E0052F00D1E527019810F0080F06D0BF
:1018A000412F04DB5A2F02DC07F12000C7B209F8F0
:1018B000017B761C082EE7DB00BF98F80800202883
:1018C0001AD02E2009F8010B082612E018F806702D
:1018D000202F00D10FE0019810F0100F06D0412FFB
:1018E00004DB5A2F02DC07F12000C7B209F8017BA4
:1018F000761C0B2EEADB00BF98F80B00287298F8D4
:101900001F00010698F81E0041EA004198F81D00EA
:1019100041EA002098F81C100843286098F8181035
:1019200098F8190041EA0020A88098F8161098F855
:10193000170041EA0020E880002089F80000D5F86F
:1019400018A0BAF1000F34D00026206900282CD04E
:10195000208CA0F57F41FF3927D0E06900901CE082
:101960000021584601F02FFD8346BBF1000F01D145
:10197000002619E0BBF1FF0F05DD4FEA2B223046B0
:10198000761C0AF80020E869401EB04201DC0026FF
:101990000AE03046761C0AF800B0009830F8021BC6
:1019A0005FEA010B0090DBD100BF00200AF80600BF
:1019B00000BFBDE8FC9F2DE9F34104460198007883
:1019C0002F2803D0019800785C2802D10198401C90
:1019D00001900020A06001980078202807D2002103
:1019E0002046FFF725FA0546002060612BE000BF86
:1019F00001A92046FFF7EBFD054605B122E0204690
:101A0000FFF706FC0546A069C07A00F0040725B17F
:101A1000042D01D107B9052514E007B112E066696C
:101A2000F07A10F0100F01D105250BE0B17EF07EA9
:101A300041EA0021327D707D42EA002041EA004007
:101A4000A060D5E700BF2846BDE8FC81222A3A3CC9
:101A50003E3F7C7F000000002B2C3B5B3D5D000087
:101A600070B504460D46607801232A4604F1300122
:101A7000FEF7ADFE08B1032070BD94F82E1294F865
:101A80002F0241EA0020A0F52A41553901D0022059
:101A9000F2E70322FB4904F16600FEF731FF08B9C3
:101AA0000020E9E70322F74904F18200FEF728FF4E
:101AB00030B994F8580010F0800F01D10020DBE716
:101AC0000120D9E72DE9F74F86B004461546206876
:101AD000029002980078A0F13008B8F1090F09D8F7
:101AE000029840783A2805D10298801C029002980A
:101AF000206001E04FF00008B8F1000F03D00B2088
:101B000009B0BDE8F08FE04850F82800019007992F
:101B10000860019808B90C20F2E70198007878B1C4
:101B200001994878FEF750FE814619F0010F07D160
:101B300025B119F0040F01D00A20E1E70020DFE70A
:101B4000002001990870019981F801800199487875
:101B5000FEF724FE814619F0010F01D00320CFE7E4
:101B600025B119F0040F01D00A20C9E74FF0000A8F
:101B700051460198FFF774FF0646012E14D10198D3
:101B800000F5F777387978B1F87A0106B87A41EA42
:101B90000041787A41EA0020397A40EA010A514648
:101BA0000198FFF75DFF0646032E01D10120A7E74C
:101BB0004EB9019890F83B1090F83C0041EA0020A3
:101BC000B0F5007F01D00D209AE7019890F84610FB
:101BD00090F8470041EA002BBBF1000F12D10198A9
:101BE00090F857000106019890F8560041EA00412C
:101BF000019890F8550041EA0021019890F85400AE
:101C000041EA000B0198C0F818B0019890F8401014
:101C1000C1700198C0780BFB00FB019890F83E1052
:101C200090F83F0041EA002000EB0A0101980162B0
:101C3000019890F83D108170019890F8411090F84B
:101C4000420041EA002001990881019890F8431070
:101C500090F8440041EA00200490049890B901985B
:101C600090F853000106019890F8520041EA0041B3
:101C7000019890F8510041EA0021019890F8500035
:101C800001430491019890F83E1090F83F0041EA1A
:101C900000200499081AA0EB0B0101980089A1EB20
:101CA000101001998978B0FBF1F0801C0390019924
:101CB000C861012640F6F7710398884200D30226D6
:101CC0004FF6F7710398884200D30326032E14D1F0
:101CD000019890F85F000106019890F85E0041EAD3
:101CE0000041019890F85D0041EA0021019890F8C8
:101CF0005C0001430198416204E00198006A584485
:101D0000019948620198006A58440199098900EBD9
:101D10001110019988624FF0FF300199086100208D
:101D200001990871032E72D101998872019890F877
:101D3000601090F8610041EA002000EB0A01019870
:101D400041610199487801234A693031FEF73FFD2E
:101D500000285CD1019890F82E1290F82F0241EAE9
:101D60000020A0F52A41553951D1019890F833004F
:101D70000106019890F8320041EA0041019890F87C
:101D8000310041EA0020019991F8301008433F49A1
:101D900088423CD1019890F817020106019890F80A
:101DA000160241EA0041019890F8150241EA00212B
:101DB000019890F8140201433548814227D10198D7
:101DC00090F81F020106019890F81E0241EA0041B6
:101DD000019890F81D0241EA0021019890F81C0238
:101DE00001430198C160019890F81B020106019817
:101DF00090F81A0241EA0041019890F8190241EA6C
:101E00000021019890F8180201430198016101989E
:101E1000067000210198C1621B48001D0088401C0B
:101E200080B21949091D08800199C88000200590D9
:101E3000059865E670B504460D4624B1207810B1CA
:101E4000E088A84201D0092070BD6078FEF7BCFC94
:101E500010F0010F01D00320F6E70020F4E703465D
:101E6000012B01DB0B207047074850F823200AB1F3
:101E70000020107009B100200870034840F82310BA
:101E80000020F0E7077800081C0000205252614152
:101E9000727241612DE9F747ADF50D7D0446154697
:101EA00001AF0020206005F01F0505F01E0284A987
:101EB0008EA8FFF707FE064626B130460DF5107DC9
:101EC000BDE8F08781A88A908B9784A88E99FFF748
:101ED00072FD064615F01C0F7DD06EB1042E03D1A5
:101EE00084A8FFF76BFA06460EB13046E6E745F0E8
:101EF0000805DDF8248250E015F0040F01D0082019
:101F0000DCE7DDF82482B8F1000F04D098F80B006C
:101F100010F0110F01D00720D0E715F0080F3CD0CA
:101F200098F81A1098F81B0041EA002198F814203C
:101F300098F8150042EA002041EA004A002088F89B
:101F40001400002188F8151088F81A0088F81B1072
:101F500088F81C0088F81D1088F81E1088F81F10DB
:101F60000120849908718498D0F82C90BAF1000F60
:101F70000BD051468498FEF7BFFE06460EB13046A0
:101F80009CE7AAF101008499C86049468498FEF74D
:101F9000D4FC06460EB1304690E715F0080F18D075
:101FA000002088F80B00FEF791FC814688F80E901F
:101FB0004FEA192088F80F004FEA194188F81010ED
:101FC0004FEA196188F8111001208499087145F0D1
:101FD000200519E0FFE70EB130466FE7DDF82482F7
:101FE000B8F1000F04D098F80B0010F0100F01D0DA
:101FF000042063E715F0020F06D098F80B0010F0EC
:10200000010F01D0072059E78498C06AE0618998E0
:102010002062A57198F81A1098F81B0041EA002078
:1020200098F8142098F8151042EA012140EA01407E
:10203000206198F81F00010698F81E0041EA00414F
:1020400098F81D0041EA002098F81C100843E06051
:102050000020A060FF20E0710020A0618498206033
:102060008498C088A080002028E72DE9FE4F044610
:102070000D4616461F46009500203860A18820684E
:10208000FFF7D8FE8046B8F1000F02D04046BDE809
:10209000FE8FA07910F0800F01D00220F7E7A07921
:1020A00010F0010F01D10720F1E7D4E90210401A26
:1020B00002900298864200D9029EC5E0A068C00541
:1020C000C00D7DD1E0792168897888421EDBA06847
:1020D00008B9206903E061692068FEF7CBFC8146FE
:1020E000B9F1010F05D8A07940F08000A07102205D
:1020F000CDE719F1010005D1A07940F08000A07171
:102100000120C4E7C4F814900020E07161692068E0
:10211000FEF781FE8246BAF1000F05D1A07940F0AA
:102120008000A0710220B2E7E07982444FEA562B8A
:10213000BBF1000F35D0E079584421688978884296
:1021400004D920688078E179A0EB010B21684878F8
:102150000BF0FF0352460099FEF739FB28B1A07936
:1021600040F08000A071012091E7A07910F0400FAD
:1021700010D0A069A0EB0A0058450BD2A169A1EBD1
:102180000A01009A02EB41204FF4007204F124018D
:10219000FEF79FFBE0795844E0714FEA4B20019035
:1021A00044E0A07910F0400F14D021684878012352
:1021B00004F12401A269FEF72EFB38B1A07900E0FA
:1021C0001FE040F08000A071012060E7A07920F0BE
:1021D0004000A071A06950450ED0216848780123C5
:1021E000524604F12401FEF7F2FA28B1A07940F03A
:1021F0008000A07101204AE7C4F818A0E079401CD3
:10220000E071A068C0F30800C0F50070019001986B
:10221000B04200D90196A068C0F3080204F124007E
:102220001118DDE90002FEF754FB00BFDDE90001F3
:1022300008440090A06801990844A060396801989A
:10224000084438600198361A002E7FF437AF00201A
:102250001DE72DE9FC5F04460D4616461F46009516
:1022600000203860A1882068FFF7E4FD8046B8F1BF
:10227000000F02D04046BDE8FC9FA07910F0800F0F
:1022800001D00220F7E7A07910F0020F01D107205A
:10229000F1E7E0683044E168884200D20026D9E0E6
:1022A000A068C005C00D78D1E0792168897888429E
:1022B0002CDBA06858B9D4F81090B9F1000F0BD1FD
:1022C00000212068FEF74CFD8146206104E0616931
:1022D0002068FEF745FD8146B9F1000F00D1BCE052
:1022E000B9F1010F05D1A07940F08000A071022062
:1022F000C1E719F1010005D1A07940F08000A0717B
:102300000120B8E7C4F814900020E071A07910F023
:10231000400F12D021684878012304F12401A269FA
:10232000FEF779FA28B1A07940F08000A071012071
:10233000A1E7A07920F04000A07161692068FEF754
:102340006AFD8246BAF1000F05D1A07940F0800005
:10235000A07102208FE7E0798244700A0190019811
:1023600000283AD0E07901990844216889788842A8
:1023700004D920688078E179401A01902168487872
:102380000199CBB252460099FEF745FA30B1A079D7
:1023900040F08000A07101206DE739E0A069A0EB5A
:1023A0000A010198814210D2A069A0EB0A000246FE
:1023B000009800EB42214FF4007204F12400FEF774
:1023C00088FAA07920F04000A071E17901980844D2
:1023D000E07101984FEA402B31E0A069504512D0DE
:1023E000D4E9020188420ED221684878012352467E
:1023F00004F12401FEF7EBF928B1A07940F0800048
:10240000A071012037E7C4F818A0E079401CE07102
:10241000A068C0F30800C0F5007BB34500D9B346FF
:10242000A168C1F3080204F1240150185A4600992A
:10243000FEF74FFAA07940F04000A07100BF00986D
:1024400058440090A0685844A060386858443860E8
:10245000A6EB0B06002E7FF423AF00BFD4E90201E8
:10246000884201D9A068E060A07940F02000A07106
:10247000002000E72DE9F0410446A1882068FFF71D
:10248000D9FC0546002D4ED1A07910F0200F4AD07E
:10249000A07910F0400F0FD021684878012304F193
:1024A0002401A269FEF7B7F910B10120BDE8F0815F
:1024B000A07920F04000A071E1692068FEF73DFAA4
:1024C0000546002D2FD1276AF87A40F02000F872D7
:1024D000E0683877E068010A7977E068010CB9773D
:1024E000E068000EF8772069B8762069000AF8766F
:1024F0002069000C38752069010E7975FEF7E6F940
:102500000646BE75310AF975310C3976310E797689
:10251000A07920F02000A0710120216808712068B6
:10252000FEF744FA05462846C0E770B50446204643
:10253000FFF7A0FF05460DB900202060284670BDBA
:102540002DE9F04704460D46A1882068FFF772FC8C
:10255000064616B13046BDE8F087A07910F0800F2E
:1025600001D00220F7E7E068A84204D2A07910F079
:10257000020F00D1E568D4F808A04FF00009C4F8B4
:102580000890FF20E071002D7AD0206880784FEA13
:102590004028BAF1000F12D0681EB0FBF8F0AAF183
:1025A0000101B1FBF8F1884209D3AAF10100A8F1B9
:1025B00001018843A060A0682D1A676918E02769A7
:1025C000AFB900212068FEF7CBFB0746012F05D1EC
:1025D000A07940F08000A0710220BCE7781C05D1F2
:1025E000A07940F08000A0710120B4E72761676105
:1025F000002F4BD02AE0A07910F0020F07D0394607
:102600002068FEF7ADFB074637B9454620E039465E
:102610002068FEF72FFA0746781C05D1A07940F014
:102620008000A071012096E7012F03D92068C069BE
:10263000B84205D8A07940F08000A07102208AE756
:102640006761A0684044A060A5EB08054545D2D865
:1026500000BFA0682844A060C5F34720E071E805EA
:10266000C00D13D039462068FEF7D5FB8146B9F17D
:10267000000F06D1A07940F08000A07102206AE727
:1026800004E0E0798144E079401CE071A068C00575
:10269000C00D2AD0A069484527D0A07910F0400F7E
:1026A00012D021684878012304F12401A269FEF7C1
:1026B000B2F828B1A07940F08000A07101204AE76B
:1026C000A07920F04000A0712168487801234A4693
:1026D00004F12401FEF77BF828B1A07940F08000D6
:1026E000A071012037E7C4F81890D4E902018842AC
:1026F00005D9A068E060A07940F02000A0713046C4
:1027000029E7F3B5ADF5037D04466F460022214667
:1027100084A8FFF7D7F905463DBB80A8A061E76113
:1027200020468499FFF747F90546DDB9666986B109
:10273000F07A10F0100F0BD0B17EF07E41EA00214C
:10274000327D707D42EA002041EA0040A06000E056
:1027500005253DB92068C088A08000212046FEF7ED
:1027600067FB0546042D00D1052528460DF5057D9E
:10277000F0BDF0B5ADF5037D04460D466F46A1886A
:102780002068FFF757FB06460EBB80A8A061E761F3
:102790002DB900212046FEF74BFB064617E02046E8
:1027A000FEF7ADFD0646042E02D100202061002672
:1027B0006EB929462046FFF757F800212046FEF75C
:1027C00085FB0646042E02D10020206100263046FB
:1027D0000DF5037DF0BD73B5ADF50C7D0C466E4671
:1027E000002283A98CA8FFF76DF9054685B980A85A
:1027F00089908A9683A88C99FFF7DDF805463DB944
:10280000889820B1214683A8FFF72EF800E006251E
:1028100028460DF50E7D70BD2DE9F74F82B00C46B0
:1028200015460022294602A8FFF74CF906461EB1BC
:10283000304605B0BDE8F08F286800692968C9698D
:10284000891E884204D82868006920600020F0E7CB
:10285000286890F800B000200190BBF1010F1DD155
:10286000022700BF39462868FEF704F9814619F1AE
:10287000010001D10120DCE7B9F1010F01D10220F3
:10288000D7E7B9F1000F02D10198401C0190781CE4
:1028900007462968C9698842E4D347E02868C769C0
:1028A0002868D0F820804FF0000A0020009000BF78
:1028B000BAF1000F0ED1414608F101082868FEF771
:1028C0003CF806460EB13046B3E728683030009039
:1028D0004FF4007ABBF1020F0ED1009801784078D6
:1028E00051EA002002D10198401C01900098801C00
:1028F0000090AAF1020A16E00098C078000600993C
:10290000897840EA01410098407841EA0020009926
:102910000978084302D10198401C01900098001DDD
:102920000090AAF1040A781E0700C1D10198296815
:102930000861BBF1030F02D1012029688872019858
:102940002060002075E770B50446A1882068FFF775
:1029500071FA05460DB1284670BDA07910F0800FC0
:1029600001D00220F8E7A07910F0020F01D1072072
:10297000F2E7D4E9021088422DD9A068E060A0797E
:1029800040F02000A071A06838B921692068FEF7E6
:10299000B3F90546002020611DE061692068FEF75B
:1029A00069F806460025701C00D10125012E00D1D2
:1029B000022585B92068C069B0420CD96FF0704219
:1029C00061692068FEF7E5F8054625B931462068BB
:1029D000FEF792F905461DB1A07940F08000A07184
:1029E0002846B9E7F1B5ADF5167D01AE01228DA9F6
:1029F00096A8FFF767F804461CB120460DF5177D31
:102A0000F0BD81A8939094968DA89699FEF7D3FF78
:102A1000044600BF0CB12046F0E7929D0DB9062098
:102A2000ECE7E87A10F0010F01D00720E6E7A97E75
:102A3000E87E41EA00212A7D687D42EA002041EAE1
:102A40000047E87A10F0100F1BD0022F01D20220AD
:102A5000D4E724228DA984A8FDF73BFF86970021A7
:102A600084A8FEF7E5F904460CB12046C6E784A821
:102A7000FEF745FC044604B90724042C01D0204687
:102A8000BCE78DA8FEF773FD044654B927B139465B
:102A90008D98FEF731F904461CB98D98FDF786FF35
:102AA00004462046AAE72DE9F14FADF50C7D6D46B1
:102AB000012283A98CA8FFF705F8044624B120461B
:102AC0000DF50D7DBDE8F08F80A889908A9583A8CB
:102AD0008C99FEF770FF044604B9082400BF042C4B
:102AE00001D02046ECE700218398FEF739F98146B2
:102AF0000024B9F1000F00D10724B9F1010F00D172
:102B0000022419F1010000D1012424B90021839885
:102B1000FDF713FF04460CB12046D1E749468398E0
:102B2000FEF779F98046839800F130064FF4007281
:102B300000213046FDF7DAFE0B2220213046FDF75A
:102B4000D5FE2E2030701020F072FDF7BFFE8346B8
:102B500086F816B04FEA1B21F1754FEA1B4131761A
:102B60004FEA1B61717686F81A904FEA1921F176C7
:102B70004FEA194030754FEA1961717520223146CC
:102B800006F12000FDF7A5FE2E2086F82100DDF8D5
:102B900014A283980078032805D18398406A504591
:102BA00001D14FF0000A86F83AA0CAF307213B2072
:102BB0008155CAF30741342081554FEA1A61352007
:102BC0008155002717E08398C0F82C8008F1010890
:102BD00001208399087100218398FDF7AEFE044619
:102BE0000CB120466CE74FF4007200213046FDF72F
:102BF0007DFE781CC7B283988078B842E3DC83A856
:102C0000FEF7DCFB044624B149468398FEF774F8CE
:102C10001FE0889E1020F07286F816B04FEA1B2045
:102C2000F0754FEA1B4131764FEA1B61717686F8E9
:102C30001A904FEA1921F1764FEA194030754FEAA0
:102C4000196070750120839908718398FDF7AEFEB5
:102C50000446204634E72DE9F741ADF50D7D0C46DD
:102C600015460DF10408012284A98DA8FEF72AFF5C
:102C70000746FFB981A88A90CDF82C8284A88D9947
:102C8000FEF799FE074600BFA7B9899E0EB9062731
:102C900010E005F0270504EA0500F17AEA43D2B214
:102CA00011400843F0720120849908718498FDF75F
:102CB0007DFE074638460DF5107DBDE8F081F3B581
:102CC000ADF50D7D0C4601AF012284A98DA8FEF75C
:102CD000F9FE0546F5B981A88A908B9784A88D994D
:102CE000FEF769FE054600BFA5B9899E0EB9062507
:102CF00010E0E088B075E0880112F175A0883076A8
:102D0000A088011271760120849908718498FDF7DA
:102D10004DFE054628460DF50F7DF0BD2DE9F3412A
:102D2000ADF51C7D0C4607AE87A899909A960122B6
:102D300093A99CA8FEF7C6FE05463DB993988A90D4
:102D400093A89C99FEF737FE054600BF25B128469B
:102D50000DF51E7DBDE8F081989808B90420F7E7CD
:102D6000989800F10B01152201A8FDF7B2FD24226D
:102D700093A98AA8FDF7ADFD21468AA8FEF71BFEA0
:102D8000054605B90825042D5ED18AA8FEF716FB75
:102D90000546002D58D18F9F13220DF1060107F132
:102DA0000D00FDF796FD9DF8040040F02000F8723C
:102DB000012093990871F87A10F0100F3AD03B7DFA
:102DC0007A7D43EA022397F81AC0FA7E4CEA02227F
:102DD00043EA02018A98FEF71EF88046B8F1000F18
:102DE00001D1022526E041468A98FDF7A6FD054659
:102DF0008A9800F15007EDB978782E281AD18A9870
:102E00000078032806D18A998C98496A884201D1B2
:102E1000002000E08C98804687F81A804FEA18213D
:102E2000F9764FEA184038754FEA18607875012036
:102E30008A99087145B993A8FEF799FB05461DB913
:102E40009398FDF7B3FD0546284681E72DE9F84341
:102E500004460D469046002627460FE06B460122A9
:102E600039464046FFF701F90098012800D008E0F4
:102E7000761C17F8011B0A2900D102E0681EB04237
:102E8000ECDC00BF0020387016B12046BDE8F883A6
:102E90000020FBE77CB504460D460DB920467CBDFD
:102EA000E0B2009001AB012269462846FFF7D1F954
:102EB000019808B12046F2E74FF0FF30EFE770B518
:102EC00004460D46002609E020782946FFF7E2FF78
:102ED000401C01D1401E70BD641C761C2078002867
:102EE000F2D13046F7E70FB42DE9F04F85B010A8C6
:102EF0000490002082468346BDE00F9810F8014BF5
:102F00000F9004B9BBE0252C0AD020460E99FFF79C
:102F1000C1FF83461BF1010001D04FF0010BA9E076
:102F20000020054681460F9810F8014B0F90302C79
:102F300004D101250F9810F8014B0F9009E0A4F17E
:102F4000300009EB890100EB41090F9810F8014BA3
:102F50000F90302C01DB392CF1DD6C2C05D145F0C4
:102F600002050F9810F8014B0F90732C07D10499AC
:102F700001C904910E99FFF7A2FF83467AE0632C02
:102F80000CD1049901C904910E99FFF783FF834680
:102F90001BF1010001D04FF0010B6BE00026642C07
:102FA00000D10A26752C00D10A26582C00D11026F3
:102FB00006B964E015F0020F03D0049880C80490AD
:102FC0000DE0642C05D1049800680499091D049152
:102FD00004E0049800680499091D04910746642CD4
:102FE00005D117F0004F02D07F4245F004054FF0A5
:102FF0000F0800200DF8080000BFB7FBF6F006FB35
:1030000010703030C4B2392C01DDE01DC4B2A8F11B
:10301000010080460DF80040B7FBF6F7B8F1000F4D
:1030200001D0002FE9D1B8F1000F08D015F0040F3E
:1030300005D02D20A8F1010188460DF80100C9F145
:103040000F090BE015F0010F01D0302000E0202027
:10305000C0B2A8F1010188460DF80100B8F1000FD7
:1030600001D0C845EEDC0DEB08000E99FFF727FFF5
:10307000834600BFDA441BF101007FF43EAF00BF7E
:103080001BF1010005D1584605B0BDE8F00F5DF811
:1030900014FB5046F8E7000010B56FF0040002F092
:1030A000D2FD2A4800682A49B0FBF1F0294908708E
:1030B000084600784FF47A7148432649891C0880F5
:1030C00010BD244A127842434FF0E0235A61002297
:1030D0009A611A46126942F001021A6100BF4FF06C
:1030E000E022116911F0010F02D011F4803FF6D0F7
:1030F0004FF0E022126922F001024FF0E0231A6142
:1031000000229A617047134A921C128842434FF082
:10311000E0235A6100229A611A46126942F00102C4
:103120001A6100BF4FF0E022116911F0010F02D0C7
:1031300011F4803FF6D04FF0E022126922F0010234
:103140004FF0E0231A6100229A617047700000205E
:1031500000127A002200002070B50546002405E028
:10316000601CC4B2C82C01DD002070BD02212F48B4
:1031700003F047FF0028F3D029462C4803F0EEFE69
:10318000002405E0601CC4B2C82C01DD0020ECE77F
:103190000121264803F035FF0028F3D0234803F02F
:1031A000DFFEC0B2E1E708B5012141F2040003F0FF
:1031B00084FCE020ADF8000018208DF80300032007
:1031C0008DF8020069461A4803F0D0F9E02118484A
:1031D00003F076FA0020174908804FF48270488087
:1031E000002088800220C880012008814002488198
:1031F000382088810020C881072008820B4803F00E
:10320000D7FD0121094803F073FEFF20FFF7A4FF5B
:1032100008BD10B50446074884810146034803F001
:10322000C7FD0121014803F063FE10BD00300140DD
:10323000000801400C110020014600BF704700BF8C
:10324000494A128812F0400FFAD0C2B2474B1A8096
:10325000704710B586B00446012144F2040003F023
:103260002CFC4FF40070ADF8140003208DF816000C
:1032700018208DF8170005A93D4803F077F94FF4A1
:103280008060ADF8140004208DF8170005A93848B7
:1032900003F06CF925208DF8000003208DF8010063
:1032A0008DF8020001208DF80300684602F077FCDB
:1032B00001940020ADF80800ADF80A00ADF80C004C
:1032C000ADF810000C20ADF80E0001A9264803F05F
:1032D00012FF012240F22551234803F0A3FF0121F0
:1032E000214803F093FF06B010BD10B540F2255100
:1032F0001D4804F07EF8002834D01B4803F0F9FF85
:10330000C4B21C48008810F4004F2BD11948008823
:1033100010F4804F0CD00A2C03D0002015490880EF
:1033200020E01448008840F400401249088019E069
:103330000D2C06D10F48008840F480400D490880CC
:1033400010E00C480088C0F30D000B490C540948EC
:103350000088401C0749088008460088C72801DD0E
:103360000020088010BD00000038014004380140F2
:1033700000080140280000201E11002010B5024660
:103380000AB9012010BD1446002302E044F823309E
:103390005B1CB3EB910FF9D30020F3E700BFFEE70E
:1033A00003E011F8012B00F8012B0A78002AF8D16C
:1033B0000270704710B50446184610BD00BFFEE706
:1033C00001460020704702460020704708B53120B2
:1033D0008DF8000000208DF801008DF8020001201A
:1033E0008DF80300684602F0DAFB08BD10B594B012
:1033F000FFF7ECFF4FF4A06002F0CCFB00F0F3FA13
:1034000004462A2C03D1684600F01EFB04462A2CF1
:1034100005D1BDF84C10080400F05EFE04462A2CCD
:1034200003D1002000F0F2FD04462A2C03D1002035
:1034300000F046FE0446204614B010BD70B52A25A3
:10344000FF48446B01E0FE48446B14F0450FFAD08E
:1034500014F0040F05D00325042003F059FC28467E
:1034600070BD14F0010F05D00125012003F050FCC0
:103470002846F5E740F2FF5003F04AFC2846EFE704
:103480002DE9F04104460D462A26ED48D0F8348057
:1034900002E0EB48D0F8348018F0450FF9D018F06E
:1034A000040F06D00326042003F032FC3046BDE8AA
:1034B000F08118F0010F05D00126012003F028FC4F
:1034C0003046F4E703F0CAFBA04202D01026304693
:1034D000EDE740F2FF5003F01BFC002003F0C2FBBD
:1034E000074617F4604F03D1380C28803046DEE7DA
:1034F00017F4005F01D01320D9E717F4804F01D0F3
:103500001020D4E717F4004F01D00F20CFE730464A
:10351000CDE738B52A240120009003F070FB10B9E4
:103520002524204638BDC7480068042829D000203B
:10353000C549086002204860C02088600020C8603B
:103540004FF480600861084603F06EFBFFF776FFDA
:1035500004462A2C01D02046E4E7002003F082FB39
:10356000BA490860042003F07DFBB8494860082090
:1035700003F078FBB54988600C2003F073FBB34976
:10358000C860B048006858B1AE480068012807D04C
:10359000AC480068062803D0AA480068022817D162
:1035A0000020A9490860032048604020886000206E
:1035B000C8604FF480600861084603F035FB694637
:1035C0000320FFF75DFF04462A2C01D02046A9E71F
:1035D0009C480068042834D0BDF800009949091DB2
:1035E0000860BDF8000000049749086009204860A1
:1035F000C02088600020C8604FF4806008610846E1
:1036000003F012FBFFF71AFF04462A2C01D02046D4
:1036100088E7002003F026FB8C491039086004205D
:1036200003F020FB894910394860082003F01AFB99
:103630008649103988600C2003F014FB8349103947
:10364000C8602A2420466DE770B52A257C48446B63
:1036500001E07B48446B14F0450FFAD014F0040FDE
:1036600005D00325042003F053FB284670BD40F22B
:10367000FF5003F04DFB2846F8E72DE9F0410446E2
:103680002A256F48476B01E06D48476B17F0450FDF
:10369000FAD017F0040F06D00325042003F038FBFE
:1036A0002846BDE8F08117F0010F05D00125012063
:1036B00003F02EFB2846F4E703F0D0FAA04202D034
:1036C00010252846EDE740F2FF5003F021FB0020D3
:1036D00003F0C8FA06465E490E4201D12846E0E7EB
:1036E00016F0004F01D01C20DBE716F0804F01D010
:1036F0000920D6E716F0005F01D00A20D1E716F0C6
:10370000805F01D00B20CCE716F0006F01D00C20B9
:10371000C7E716F0806F01D00D20C2E716F0807F5A
:1037200001D00E20BDE716F4000F01D00F20B8E73E
:1037300016F4800F01D01020B3E716F4001F01D05B
:103740001120AEE716F4801F01D01220A9E716F46D
:10375000002F01D01320A4E716F4802F01D01420ED
:103760009FE716F4003F01D015209AE716F4803F3A
:1037700001D0162095E716F4004F01D0172090E7EE
:1037800016F4804F01D018208BE716F4005F01D0AB
:10379000192086E716F0080F01D01A2081E7284685
:1037A0007FE770B52A2442F210752548466B02E087
:1037B0006D1E2348466B16F0450F01D1002DF7D141
:1037C00015B116F0040F05D00324042003F0A0FA6D
:1037D000204670BD16F0400F05D02A24402003F08B
:1037E00097FA2046F5E72046F3E770B52A2442F21F
:1037F000107500E06D1E25B1802003F07FFA0028CF
:10380000F8D015B90324204670BD40F2FF5003F0F4
:103810007FFA2046F8E72DE9F0412A24002500260A
:1038200000274FF00008B2200A4908750020086000
:1038300048608860C8600861084603F0B5F90BE08D
:10384000008001403000002020120020F8110020EC
:1038500008E0FFFD08120020032003F0C5F9012055
:1038600003F0BFF90020FF49086048608860C86025
:103870004FF480600861084603F0D6F9FFF7B5FF02
:1038800004462A2C02D02046BDE8F0814FF4D570C2
:10389000F449086008204860402088600020C86023
:1038A0004FF480600861084603F0BEF9FFF779FF26
:1038B00004462A2C05D10120EB4908604FF08048CE
:1038C00012E00020E7490860372048604020886007
:1038D0000020C8604FF480600861084603F0A4F936
:1038E0003720FFF7CAFE04460020DE490860372073
:1038F0004860402088600020C8604FF48060086104
:10390000084603F091F93720FFF7B7FE04462A2C4A
:103910004CD138E00020D34908603720486040206F
:1039200088600020C8604FF480600861084603F09A
:103930007BF93720FFF7A1FE04462A2C01D0204650
:10394000A2E7CA4848EA0000C64908602920486042
:10395000402088600020C8604FF4806008610846FD
:1039600003F062F9FFF770FE04462A2C01D02046CE
:103970008AE7002003F076F90546012080EAD57039
:1039800080F00107761C1FB94FF6FF708642C1D345
:103990004FF6FF70864202D31B24204674E705F0E1
:1039A0008040050002D00220AF49086020466BE746
:1039B00008B50121302003F080F84FF4F850ADF83D
:1039C000000003208DF8020018208DF803006946DE
:1039D000A74802F0CBFD0420ADF800006946A548D9
:1039E00002F0C4FD08BD10B52A24FFF7E1FF012154
:1039F000880203F055F80121022003F051F803F08A
:103A0000C5F8FFF708FF04462A2C01D0204610BD58
:103A1000FFF77FFD04462A2C01D02046F7E701205E
:103A2000954908750020086048608860C860086192
:103A3000084603F0B9F82046E9E710B52A2400202B
:103A400003F0D2F8204610BD30B501462A200022EE
:103A5000854B1B6881F84E30834B1B1D1B68A1F8FA
:103A60004C30864B1B681A0E93090B70C2F383030C
:103A70004B7002F003038B70804B1B68C3F307424B
:103A8000CA707E4B1B68C3F307220A717B4B1B680D
:103A9000DAB24A71794B5B681A0E1301CB80774B0F
:103AA0005B68C3F30742CB8843EA1213CB8002F072
:103AB0000F030B72714B5B68C3F30722D3094B7280
:103AC000C2F380138B72C2F34013CB72C2F30013A4
:103AD0000B7300234B73644B1B681BB1624B1B6859
:103AE000012B3DD193071B0D0B61644B5B68DAB270
:103AF0000B6943EA82030B61604B9B681A0E0B69EA
:103B000043EA92130B61C2F3C2030B7502F0070381
:103B10004B755A4B9B68C3F3074253098B75C2F32D
:103B20008203CB7593075B0F0B76544B9B68C3F3F3
:103B300007220B7E43EAD2130B760B695B1C4B64A6
:103B40000C7E4D6CA41C0123A3405D434D640C7A94
:103B50000123A3408B64D1E9113463434B6422E019
:103B6000414B1B68022B1ED1444B5B68DAB29306B3
:103B70009B0A0B61414B9B681A0E0B6943EA0223B7
:103B80000B613E4B9B68C3F307420B6913430B6108
:103B90003A4B9B68C3F307220B695B1CDB044B6445
:103BA0004FF400738B64C2F3801301F8193F93063E
:103BB0005B0E4B70314B9B68DAB24B7843EAD21301
:103BC0004B7002F07F038B702C4BDB681A0ED3090D
:103BD000CB70C2F341130B71C2F382034B71930795
:103BE0001B0F8B71254BDB68C3F307428B7943EACC
:103BF00092138B71C2F34013CB7100230B7202F04E
:103C000001034B721D4BDB68C3F30722D3098B7290
:103C1000C2F38013CB72C2F340130B73C2F30013D1
:103C20004B73C2F381038B7302F00303CB73134B0B
:103C3000DB68DAB253080B7401234B740F4B10335B
:103C40001B681A0ECA74A1F119010C4B03F1100381
:103C50001B68C3F307424FEA0224CC85074B03F1EC
:103C600010030DE020120020300000200000108022
:103C7000001001400014014008120020E81100204B
:103C80001B68C3F30722CC8D44EA0204CC85FB4BAE
:103C90001B68DAB24FEA02640C63F84B5B684FEAC8
:103CA00013620B6B43EA02440C63F44B5B68C3F38F
:103CB00007420B6B43EA02240C63F04B5B68C3F3CF
:103CC00007220C6B44EA02040C63EC4B5B68DAB22B
:103CD0004FF034035A54E94B9B684FEA13624FF09C
:103CE00035035A54E54B9B68C3F307424FEA02641D
:103CF0008C63E24B9B68C3F307228B6B43EA02445D
:103D00008C63DE4B9B68DAB28B6B43EA02248C63D4
:103D1000DA4BDB684FEA13628C6B44EA02048C6373
:103D2000D64BDB68C3F307424FF03C035C5C44EACC
:103D300012145C544FEA02734FEA1354CC87CF4BF2
:103D4000DB68C3F30722CC8F44EA0204CC87CB4B59
:103D5000DB68DAB24FEA52044FF040035C544FF094
:103D600001044FF041035C5430BD2DE9FC4107468E
:103D70000C4600252A266846002213460CC008205F
:103D8000BF49086010204860402088600020C8605B
:103D90004FF480600861084602F046FF1020FFF7EC
:103DA0006CFC06462A2E02D03046BDE8FC81B548A0
:103DB00000680004B24908603720486040208860ED
:103DC0000020C8604FF480600861084602F02CFFB4
:103DD0003720FFF752FC06462A2E01D03046E4E792
:103DE000A948AA490860082048603020886002205D
:103DF000C8600020086101204861084602F039FFD0
:103E000000209F49086033204860402088600020DF
:103E1000C8604FF480600861084602F005FF332057
:103E2000FFF72BFC06462A2E01D03046BDE709E0FD
:103E30004FF4001002F062FF20B102F03CFF4DF899
:103E400025006D1C9248406B40F22A610842EFD079
:103E5000082002F053FF28B1082002F059FF042681
:103E60003046A2E7022002F049FF28B1022002F00A
:103E70004FFF0226304698E7202002F03FFF28B18E
:103E8000202002F045FF062630468EE74FF40070F2
:103E900002F034FF30B14FF4007002F039FF072612
:103EA000304682E740F2FF5002F032FF00980006F1
:103EB000009901F47F4140EA0120009901F47F015B
:103EC00040EA1120009940EA116060600198000604
:103ED000019901F47F4140EA0120019901F47F0139
:103EE00040EA1120019940EA1160206030465CE709
:103EF0007CB504462A25684600210A4606C00020F3
:103F000002F0B0FE10F0007F02D00E2528467CBDE6
:103F100069465C48006880B2FFF727FF05462A2DF6
:103F200001D02846F3E7012C37D1019810F4802FF7
:103F300030D0544800680004514908603720486078
:103F4000402088600020C860A0020861084602F096
:103F50006BFE3720FFF791FB05462A2D01D028463E
:103F6000D5E7022046490860062048604020886066
:103F70000020C8604FF480600861084602F054FEDB
:103F80000620FFF77AFB05462A2D01D02846BEE71A
:103F90002846BCE725252846B9E7019810F4803F5C
:103FA00031D038480068000435490860372048603F
:103FB000402088600020C8604FF480600861084697
:103FC00002F032FE3720FFF758FB05462A2D01D0BC
:103FD00028469CE700202A490860062048604020C7
:103FE00088600020C8604FF480600861084602F0D5
:103FF0001BFE0620FFF741FB05462A2D01D028466F
:1040000085E7284683E72525284680E770B50446DE
:104010002A251C48001F0068032802D127252846AE
:1040200070BD1848001F006848B11648001F00689E
:10403000012804D01348001F006802283ED1B4F5BF
:10404000805F02D127252846EAE7B4F5006F23D127
:104050000120FFF74DFF05462A2D2FD101200D49E4
:10406000087500200860486088604FF40060C860F0
:1040700000200861084602F097FD1FE0F8110020BB
:104080002012002034000020FFFF0F003412002017
:1040900000800140081200200020FFF729FF05469C
:1040A0002A2D0BD10120FC490875002008604860CA
:1040B0008860C8600861084602F076FD2846AFE7D0
:1040C00001462A2019B1012901D0022902D1F34A5F
:1040D000116000E02620704770B504462A25F0489C
:1040E00004600720EE494860402088600020C860D6
:1040F0004FF480600861084602F096FD0720FFF744
:10410000BCFA0546284670BD30B58BB004460D4656
:10411000E44801F0B2FE0021E34801F082FEE348EA
:104120000090019400200290A808039000200490C1
:104130008020059080000690800007900020089065
:104140004FF40050099000200A906946D64801F0CB
:104150003DFE0121D44801F064FE0BB030BD0146A4
:10416000002002E04910421CD0B20129FAD1704768
:104170002DE9F04704460D4616462A274FF0000960
:10418000A8464FF0000A1DB926273846BDE8F0873B
:104190002A20C74908700020C6490860BF49091D88
:1041A0000860C548C5490860002048608860C8604C
:1041B00008614861084602F05CFD002002F031FD14
:1041C000002002F04FFD10F0007F02D00E2738468D
:1041D000DCE7B24808380068022801D10602640A08
:1041E000002E20DDB6F5006F1DDC701E30421AD1A6
:1041F0003046FFF7B4FF8246A94806601020A84960
:104200004860402088600020C8604FF480600861EA
:10421000084602F009FD1020FFF72FFA07462A2F63
:1042200004D03846B2E726273846AFE7A248A3496C
:104230000860084646604FEA0A1088600220C8609D
:104240000020086101204861084602F012FD9348F1
:10425000001D0660002091490831086098480560FB
:104260008F48046011208E494860402088600020FB
:10427000C8604FF480600861084602F0D5FC112048
:10428000FFF7FBF907462A2F01D038467EE783481F
:104290000068022856D112E04FF4004002F02EFDD3
:1042A00068B14FF0000905E002F005FD48F829006B
:1042B00009F10109B9F1080FF6D308F120087B488C
:1042C0008038406B40F22A610842E5D0082002F0B5
:1042D00015FD28B1082002F01BFD0427384655E7DC
:1042E000022002F00BFD28B1022002F011FD02278E
:1042F00038464BE7202002F001FD28B1202002F0D3
:1043000007FD0627384641E74FF4007002F0F6FC3F
:1043100030B14FF4007002F0FBFC0727384635E758
:1043200005E002F0C8FCC8F8000008F104084FF4EA
:10433000001002F0E3FC0028F3D140F2FF5002F03D
:10434000E7FC37E055480068012813D1012148F205
:104350002A3002F059FC00BF5648006818B954488A
:1043600000782A28F8D0524800782A2822D05048CD
:1043700000780BE749480068E0B9012140F22A3093
:1043800002F042FC012002F04CFC31462846FFF7C7
:10439000BBFE6FF07F4901E0A9F10109494801F036
:1043A0005BFD10B9B9F1000FF6D1B9F1000F01D1E1
:1043B0002920EBE63846E9E62DE9F05F04460D4694
:1043C00016461F464FF02A084FF00009AA464FF044
:1043D000000B25B94FF026084046BDE8F09F2A2083
:1043E000334908700020334908602C49091D0860D2
:1043F000314832490860002048608860C860086120
:104400004861084602F035FC002002F00AFC00205A
:1044100002F028FC10F0007F03D04FF00E08404659
:10442000DBE71E4808380068022801D10602640A4A
:10443000002E21DDB6F5006F1EDC701E30421BD150
:104440003046FFF78CFE834615480660102014495D
:104450004860402088600020C8604FF48060086198
:10446000084602F0E1FB1020FFF707F98046B8F19B
:104470002A0F05D04046B0E74FF026084046ACE78B
:10448000012F7ED907FB06F0B0F1007F1CD34FF05F
:1044900026084046A1E7000008120020380000204E
:1044A0002012002000F000104404024080800140EF
:1044B0004400002048000020FFFF0F0034120020BD
:1044C000540000200020001007FB06F0FF490860A0
:1044D0000120091D0860FE480560FE48FE4908608D
:1044E00007FB06F048604FEA0B1088600220C860A6
:1044F0000020086101204861084602F0BAFBF74835
:1045000004601220F5494860402088600020C8609F
:104510004FF480600861084602F086FB1220FFF726
:10452000ACF88046B8F12A0F01D0404655E7E7487D
:10453000001F006802287ED112E04FF4004002F014
:10454000DDFB68B14FF0000905E002F0B4FB4AF86A
:10455000290009F10109B9F1080FF6D30AF1200A7F
:10456000DF48406B40F22A310842E6D0082002F0D2
:10457000C5FB38B1082002F0CBFB4FF004084046E1
:104580002BE7A0E0022002F0B9FB30B1022002F0DC
:10459000BFFB4FF0020840461FE7202002F0AEFBB1
:1045A00030B1202002F0B4FB4FF00608404614E77B
:1045B0004FF4007002F0A2FB38B14FF4007002F02B
:1045C000A7FB4FF00708404607E705E002F073FB42
:1045D000CAF800000AF1040A4FF4001002F08EFB42
:1045E0000028F3D14FF4807002F088FB38B3B7484D
:1045F0000C38006848B1B5480C380068022804D06F
:10460000B2480C380068012819D10020B34908606D
:104610000C204860402088600020C8604FF4806013
:104620000861084602F000FB0C20FFF726F88046E0
:10463000B8F12A0F00E007E001D04046CDE640F295
:10464000FF5002F065FB3EE0A048001F0068012813
:1046500013D1012148F22A3002F0D6FA00BFA14856
:10466000006818B9A04800782A28F8D09E48007839
:104670002A2828D09C480078AFE69448001F00689C
:1046800008BB012140F22A3002F0BEFA012002F0FC
:10469000C8FA07FB06F12846FFF736FD00BF93482E
:1046A00001F0DAFB0028FAD000BF8E48006818B984
:1046B0008D4800782A28F8D08B4800782A2802D024
:1046C0008948007889E6404687E62DE9F0410446AE
:1046D0002A25002600277D480838006800047F4905
:1046E00008600D204860402088600020C8604FF4BA
:1046F00080600861084602F097FA7948476B01E04C
:104700007748476B17F0450FFAD017F0040F06D023
:104710000325042002F0FCFA2846BDE8F08117F0DA
:10472000010F05D00125012002F0F2FA2846F4E736
:1047300002F094FA07460D2F02D010252846ECE728
:1047400040F2FF5002F0E4FA002002F08BFA064635
:10475000C6F3432020706648064201D12846DCE7B4
:1047600016F0004F01D01C20D7E716F0804F01D083
:104770000920D2E716F0005F01D00A20CDE716F03D
:10478000805F01D00B20C8E716F0006F01D00C202D
:10479000C3E716F0806F01D00D20BEE716F0807FD2
:1047A00001D00E20B9E716F4000F01D00F20B4E7B6
:1047B00016F4800F01D01020AFE716F4001F01D0CF
:1047C0001120AAE716F4801F01D01220A5E716F4E5
:1047D000002F01D01320A0E716F4802F01D0142061
:1047E0009BE716F4003F01D0152096E716F4803FB2
:1047F00001D0162091E716F4004F01D017208CE766
:1048000016F4804F01D0182087E716F4005F01D01E
:10481000192082E716F0080F01D01A207DE72846FC
:104820007BE730B58BB004460D46324801F025FBDE
:104830000021314801F0F5FA2948803000900194B8
:1048400010200290A808039000200490802005907A
:104850008000069080000790002008904FF40050E0
:10486000099000200A906946234801F0AFFA01211F
:10487000214801F0D6FA0BB030BD2DE9FF5F0446A8
:104880000D4616462A274FF0000800200390814667
:104890008246029083460190009525B92627384626
:1048A00004B0BDE8F09F2A200F49087000200D4990
:1048B000086006490860074807490860002048600A
:1048C0008860C86008614861084617E03C00002025
:1048D00054000020FFFF0F0034120020201200209F
:1048E000008001404800002044000020002000100B
:1048F00008E0FFFD00F000104404024002F0B9F9A6
:10490000002002F08EF9002002F0ACF910F0007FD8
:1049100002D00E273846C3E7FF480068022801D1BD
:104920000602640A002E20DDB6F5006F1DDC701E45
:1049300030421AD13046FFF712FC8046F748066035
:104940001020F6494860402088600020C8604FF47D
:1049500080600861084602F067F91020FEF78DFEBE
:1049600007462A2F04D038469AE72627384697E785
:10497000E948001D00680004E84908600D2048600F
:10498000402088600020C8604FF4806008610846BD
:1049900002F04AF90D20FEF770FE07462A2F01D0DB
:1049A00038467DE7002002F05DF90290DFF8709351
:1049B0001FE0A9F10109D848001D00680004D7498B
:1049C00008600D204860402088600020C8604FF4D7
:1049D00080600861084602F027F90D20FEF74DFEC1
:1049E00007462A2F01D038465AE7002002F03AF94C
:1049F0000290029810F4807F02D1B9F1000FD8D153
:104A0000B9F1000F01D129204AE7C44804601820F9
:104A1000C2494860402088600020C8604FF4806030
:104A20000861084602F000F91820FEF726FE074646
:104A30002A2F01D0384633E7B7480C3006600020F3
:104A4000B54910310860B7480560B548B6490860F7
:104A5000084646604FEA081088600020C860086178
:104A600001204861084602F004F9AB4808300068AC
:104A700002287AD147E04FF4804002F03FF9002845
:104A800041D0A5480C300068A0EB0A00202828D2AD
:104A9000A1480C300068A0EB0A0010F0030F06D10B
:104AA0009D480C300068A0EB0A00800806E09A4898
:104AB0000C300068A0EB0A008008401C01904FF009
:104AC000000B0AE00099086802F0F8F80BF1010BFE
:104AD0000098001D00900AF1040A01988345F1D363
:104AE00011E04FF0000B06E0009951F82B0002F0A6
:104AF000E5F80BF1010BBBF1080FF5D3009820305E
:104B000000900AF1200A8948406B40F21A6108427D
:104B1000B1D0082002F0F2F828B1082002F0F8F82D
:104B200004273846BCE6022002F0E8F828B102204B
:104B300002F0EEF802273846B2E6102002F0DEF866
:104B400028B1102002F0E4F805273846A8E64FF413
:104B5000007002F0D3F8002845D04FF4007002F046
:104B6000D7F8072738469BE6FFE76B480830006810
:104B7000012813D1012144F21A3002F045F800BF98
:104B80006B48006818B96B4800782A28F8D0694843
:104B900000782A2827D06748007881E65E480830E8
:104BA000006800BB012140F21A3002F02DF83146B6
:104BB0002846FFF736FE012002F033F800BF5E48BA
:104BC00001F04AF90028FAD000BF5948006818B926
:104BD000584800782A28F8D0564800782A2802D069
:104BE000544800785CE640F2FF5002F091F803A8C8
:104BF000FFF76BFD074603E003A8FFF766FD0746D6
:104C00002A2F07D19DF80C000728F5D09DF80C003D
:104C10000628F1D0384643E62DE9FE4F04460D46FE
:104C200016461F464FF02A084FF000090020029058
:104C3000824683460190009525B94FF026084046EC
:104C4000BDE8FE8F2A203B490870002038490860E3
:104C500031490C310860324833490860002048600F
:104C60008860C86008614861084602F002F80020C8
:104C700001F0D7FF002001F0F5FF10F0007F03D016
:104C80004FF00E084046DBE723480068022801D1B8
:104C90000602640A002E21DDB6F5006F1EDC701ED0
:104CA00030421BD13046FFF75AFA81461B48066056
:104CB00010201A494860402088600020C8604FF4E6
:104CC00080600861084601F0AFFF1020FEF7D5FCB8
:104CD0008046B8F12A0F05D04046B1E74FF02608CC
:104CE0004046ADE70C48001D006800040B49086011
:104CF0000D204860402088600020C8604FF480602C
:104D00000861084601F090FF0D20FEF7B6FC8046D2
:104D1000B8F12A0F14D011E030000020201200203A
:104D2000FFFF0F00500000203412002000800140DF
:104D300048000020440000200020001040467FE78B
:104D4000012F7ED907FB06F0B0F1007F03D34FF0AF
:104D50002608404674E7FD48006838B1FB48006803
:104D6000012803D0F9480068022832D1F748001D15
:104D700000680004F64908603720486040208860D9
:104D80000020C8604FF480600861084601F04CFFC5
:104D90003720FEF772FC8046B8F12A0F01D040465A
:104DA0004EE7EB4807601720E949486040208860DB
:104DB0000020C8604FF480600861084601F034FFAD
:104DC0001720FEF75AFC8046B8F12A0F01D0404662
:104DD00036E7DF4804601920DD49486040208860DC
:104DE0000020C8604FF480600861084601F01CFF95
:104DF0001920FEF742FC8046B8F12A0F01D0404648
:104E00001EE707FB06F0D1490C3108600120091D9F
:104E10000860D0480560D048D049086007FB06F01C
:104E200048604FEA091088600020C86008610120CE
:104E30004861084601F01DFFC44808300068022898
:104E400000E0E6E06FD147E04FF4804001F056FF0C
:104E5000002841D0BD480C300068A0EB0A00202893
:104E600012D34FF0000B06E0009951F82B0001F02F
:104E700025FF0BF1010BBBF1080FF5D30098203093
:104E800000900AF1200A27E0B0480C300068A0EB3F
:104E90000A0010F0030F06D1AC480C300068A0EBFC
:104EA0000A00800806E0A9480C300068A0EB0A0060
:104EB0008008401C01904FF0000B0AE00099086840
:104EC00001F0FCFE0BF1010B0098001D00900AF1AF
:104ED000040A01988345F1D3A148406B40F21A318E
:104EE0000842B1D0082001F009FF30B1082001F0DC
:104EF0000FFF4FF004084046A2E6022001F0FEFE3C
:104F000030B1022001F004FF4FF00208404697E65E
:104F1000102001F0F3FE38B1102001F0F9FE4FF03F
:104F2000050840468CE635E04FF4007001F0E6FEDF
:104F300038B14FF4007001F0EBFE4FF00708404627
:104F40007EE64FF4807001F0D9FE002861D07F48E2
:104F5000006838B17D480068012803D07B480068AC
:104F6000022856D100207A4908600C204860402071
:104F700088600020C8604FF480600861084601F036
:104F800053FE0C20FEF779FB8046B8F12A0F40D083
:104F9000404655E66D4808300068012813D10121CC
:104FA00044F21A3001F030FE00BF6E48006818B9B4
:104FB0006D4800782A28F8D06B4800782A2828D035
:104FC000694800783CE661480830006808BB012168
:104FD00040F21A3001F018FE012001F022FE07FB1A
:104FE00006F12846FFF71DFC00BF604800F034FFC3
:104FF0000028FAD000BF5B48006818B95A4800780A
:105000002A28F8D0584800782A2802D05648007834
:1050100016E640F2FF5001F07BFE02A8FFF755FBB9
:10502000804603E002A8FFF750FB8046B8F12A0F44
:1050300007D19DF808000728F4D09DF8080006283D
:10504000F0D04046FCE54648406B10F4405F01D08C
:10505000012070470020FCE710B52A2400203C49BD
:1050600008600C204860402088600020C8604FF431
:1050700080600861084601F0D7FD0C20FEF7FDFABC
:105080000446204610BD2DE9F84304460D462A2665
:1050900000274FF00008002000903548406820218C
:1050A00011EA105F03D125263046BDE8F8832C486D
:1050B0004068C0B2801C2F49B1FBF0F8002001F01D
:1050C000D1FD10F0007F02D00E263046EDE71F48DC
:1050D0000068022801D1640A6D0A1C48006838B1D2
:1050E0001A480068012803D018480068022843D1F4
:1050F000174804602020164948604020886000203E
:10510000C8604FF480600861084601F08DFD2020E2
:10511000FEF7B3FA06462A2E01D03046C5E70C4802
:10512000056021200A494860402088600020C8604E
:105130004FF480600861084601F076FD2120FEF7FB
:105140009CFA06462A2E17D03046AEE730000020E3
:105150002012002050000020FFFF0F00341200201A
:105160000080014048000020440000200020001082
:10517000E8110020401901000020F94908602620AC
:105180004860402088600020C8604FF4806008615B
:10519000084601F049FD2620FEF76FFA06462A2E42
:1051A00001D0304681E7002700E07F1C4745FCD353
:1051B0006846FFF78AFA064603E06846FFF785FA75
:1051C00006462A2E07D19DF800000728F5D09DF845
:1051D00000000628F1D0304667E770B504462A255E
:1051E00014B92625284670BDDE4800680004DC4955
:1051F00008600D204860402088600020C8604FF49F
:1052000080600861084601F00FFD0D20FEF735FAB9
:1052100005462A2D01D02846E5E7002001F022FDB1
:1052200020602846DFE770B504462A2500260020C6
:1052300001F018FD10F0007F02D00E25284670BD49
:105240004020C74908601020486040208860002046
:10525000C8604FF480600861084601F0E5FC10204A
:10526000FEF70BFA05462A2D01D02846E7E7BD4890
:1052700000680004BA490860372048604020886010
:105280000020C8604FF480600861084601F0CCFC43
:105290003720FEF7F2F905462A2D01D02846CEE741
:1052A000B148B24908604020486060208860022010
:1052B000C8600020086101204861084601F0D9FC5F
:1052C0000020A74908600D20486040208860002029
:1052D000C8604FF480600861084601F0A5FC0D200D
:1052E000FEF7CBF905462A2D01D02846A7E70EE0A8
:1052F0004FF4004001F002FD48B1002604E001F047
:10530000DAFC44F82600761C082EF8D3203498489E
:10531000406B40F22A610842EAD0082001F0EEFC1E
:1053200028B1082001F0F4FC0425284687E7022074
:1053300001F0E4FC28B1022001F0EAFC0225284635
:105340007DE7202001F0DAFC28B1202001F0E0FC0C
:105350000625284673E74FF4007001F0CFFC30B10A
:105360004FF4007001F0D4FC0725284667E703E0FE
:1053700001F0A1FC2060241D4FF4001001F0BEFCE0
:105380000028F5D140F2FF5001F0C2FC403C00265D
:1053900015E054F82600000654F8261001F47F4169
:1053A00040EA012054F8261001F47F0140EA112060
:1053B00054F8261040EA116044F82600761C102E9E
:1053C000E7D328463BE770B5002400256548001D5B
:1053D000006801286BD1C00301F09DFCA8B100BF9B
:1053E00006E001F068FC6349096841F82400641C88
:1053F000082CF6D35F48006820305E4908605E489C
:10540000006820305C49086051E04FF4804001F0B2
:1054100082FC00284BD05348083000685649096880
:10542000401A20282ED24F48083000685249096897
:10543000401A10F0030F07D14A48083000684E495F
:105440000968401A800807E04648083000684A4961
:105450000968401A8008401C054600240FE04749AF
:105460000968086801F02AFC641C44480068001DB3
:105470004249086040480068001D3F490860AC424E
:10548000EDD314E0002406E03C49096851F82400FB
:1054900001F014FC641C082CF6D338480068203056
:1054A00036490860344800682030334908604FF4BA
:1054B000807001F030FC00283ED02A48001D0068B2
:1054C000D8B10EE001F0F7FB2A49096808602948C5
:1054D0000068001D2749086027480068001D26490C
:1054E00008604FF4001001F009FC30B12248006858
:1054F0001C49083109688842E4D31A480C30006816
:10550000012804D1FFF7A8FD1D49087002E02A20F8
:105510001B4908704FF4807001F007FC00214CF229
:105520003A3001F071FB0120164908600020124951
:1055300008601348007870BD022001F0ECFB70B1E8
:10554000022001F0F2FB00214CF23A3001F05CFB4A
:10555000002009490860022009490870EBE713E0C0
:105560002012002034000020FFFF0F003412002022
:1055700000800140540000204C000020500000201A
:105580004400002048000020082001F0C4FB70B156
:10559000082001F0CAFB00214CF23A3001F034FB44
:1055A000002021490860042020490870C3E720201A
:1055B00001F0B1FB70B1202001F0B7FB00214CF2EB
:1055C0003A3001F021FB00201749086006201749F6
:1055D0000870B0E7102001F09EFB70B1102001F0C0
:1055E000A4FB00214CF23A3001F00EFB00200E49E2
:1055F000086005200D4908709DE74FF4007001F028
:105600008AFB78B14FF4007001F08FFB00214CF25F
:105610003A3001F0F9FA00200349086007200349F5
:10562000087088E72A2086E74C000020440000200C
:1056300008B50121102001F040FA0820ADF8000063
:1056400048208DF803006946FF4800F08FFF08BD31
:1056500010B50821FC4801F019F808B1002010BD70
:105660000120FCE710B504462046FDF775FD10BD8E
:1056700010B53820FDF7CDFD10BD10B50020FDF7A9
:10568000C8FD10BD08B50121042001F016FA102054
:10569000ADF800008DF8030003208DF80200694684
:1056A000EA4800F063FF1021E84801F009F8FDF72F
:1056B0007AFD0120E649086008BD10B50120E449E3
:1056C00008604FF0FF00FFF7CDFF10BD10B50024BC
:1056D00000BFFF20FFF7C6FFFF2801D1002010BD4B
:1056E000641C6FF07F408442F3D30120F7E710B5CC
:1056F0000020D7490860FFF7E9FF08B9002010BD76
:10570000FFF7DBFF0120FAE770B504464FF6FF759F
:1057100001E0681E85B2FF20FFF7A4FFA04201D080
:10572000002DF6D10DB9FF2070BD0020FCE770B54B
:1057300004460D46FE20FFF7E7FF08B1012070BDCB
:1057400004E0FF20FDF708FD2070641C2800A5F18F
:1057500001018DB2F5D1FF20FFF784FFFF20FFF795
:1057600081FF0020EBE770B504460D46FFF7AEFF62
:1057700008B1012070BD2846FFF774FFFD2D19D038
:10578000002604E0A05DFDF7E7FC701C86B2B6F5CC
:10579000007FF7DBFF20FFF765FFFF20FFF762FFC9
:1057A000FF20FFF75FFF064606F01F00052801D027
:1057B0000220DFE70020DDE72DE9F04104460D4639
:1057C00016464FF00008FFF778FFFFF790FF10B183
:1057D000FF20BDE8F08144F04000FFF743FF280EB2
:1057E000FFF740FFC5F30740FFF73CFFC5F3072075
:1057F000FFF738FFE8B2FFF735FF3046FFF732FF1B
:105800000C2C02D1FF20FFF72DFF4FF01F0800BF27
:10581000FF20FFF727FF074617F0800F06D05FEA4B
:105820000800A8F1010101F0FF08F1D13846D0E7E6
:1058300070B50446012200210A20FFF7BDFF05468E
:1058400025B910212046FFF772FF0546FFF735FF07
:105850000DB1012070BD0020FCE770B504460122A7
:1058600000210920FFF7A8FF054625B91021204691
:10587000FFF75DFF0546FFF720FF0DB1012070BD6A
:105880000020FCE77FB56846FFF7E7FF10B1002076
:1058900004B070BD9DF8000000F0C000402809D1A0
:1058A0009DF809009DF8081000EB0120401C86B20D
:1058B000B40220E09DF8050000F00F009DF80A10EA
:1058C00000EBD1109DF8091001F0030100EB41003D
:1058D000851C9DF8080080119DF8071000EB8101E0
:1058E0009DF8060000F0030001EB8020461CA5F1A6
:1058F000090006FA00F42046CAE7F8B5FFF7C2FE31
:10590000FFF7B6FE002604E0FF20FFF7ABFE701C99
:1059100086B20A2EF8DB142500BF95220021084626
:10592000FFF74AFF0446012C04D02800A5F101012D
:105930008DB2F2D1002047490870012C4AD187224C
:105940004FF4D5710820FFF737FF012847D1002613
:1059500006E0FF20FFF786FE0DF80600701C86B2F9
:10596000042EF6DB9DF802000128E7D19DF8030024
:10597000AA287FD14FF6FE7500BF012200213720F3
:10598000FFF71AFF012291072920FFF715FF0446B0
:1059900024B12800A5F101018DB2EED1002D69D00E
:1059A000012200213A20FFF707FF002862D10026DC
:1059B00006E0FF20FFF756FE0DF80600701C86B2C9
:1059C000042EF6DB9DF8000010F0400F03D00620F7
:1059D000204908704EE004201E4908704AE0012268
:1059E00000213720FFF7E8FE012200212920FFF7E0
:1059F000E3FE0446012C17DC0220164908704FF61E
:105A0000FE7500BF012200213720FFF7D5FE0122DD
:105A100000212920FFF7D0FE04460CB32800A5F191
:105A200001018DB2EED11BE001200A4908704FF64A
:105A3000FE7500BF012200211046FFF7BDFE04469F
:105A400074B1280008E00000001001400008014087
:105A50009001214258000020A5F101018DB2E9D149
:105A60002DB1012251021020FFF7A6FE10B1002037
:105A700047490870FFF721FEFFF7FFFD4448007813
:105A800008B10020F8BD0CB12046FBE7AA20F9E7D9
:105A90002DE9F04104460D4617463D48007806289A
:105AA00000D06D02012F0CD1012229461120FFF7F1
:105AB00083FE0646FEB979022046FFF738FE064609
:105AC00019E0012229461220FFF776FE064600BFA4
:105AD0004FF400712046FFF72AFE064604F50074D5
